:100000000C948C130C94AF240C9488240C94B4138B
:100010000C94B4130C94B4130C94B4130C94BC232C
:100020000C94B4130C94B4130C94B4130C94B41334
:100030000C94B4130C94D6240C94B4130C94B413F1
:100040000C943E240C94B4130C94B4130C94B41379
:100050000C94B4130C94B4130C94B4130C94B41304
:100060000C94FD240C94B41300407A10F35A00A0B1
:10007000724E18090010A5D4E80000E87648170071
:1000800000E40B54020000CA9A3B000000E1F505B1
:10009000000080969800000040420F000000A086FB
:1000A00001000000102700000000E803000000002D
:1000B0006400000000000A000000000001000000D1
:1000C00000002C76D888DC674F0823DFC1DFAE59EB
:1000D000E1B1B796E5E3E453C63AE651997696E87E
:1000E000E6C28426EB898C9B62ED407C6FFCEFBC02
:1000F0009C9F40F2BAA56FA5F490055A2AF75C932D
:100100006B6CF9676DC11BFCE0E40D47FEF520E662
:10011000B500D0ED902E0300943577050080841E45
:10012000080000204E0A000000C80C333333330FA0
:10013000986E12831141EF8D2114893BE65516CF3D
:10014000FEE6DB18D1844B381BF77C1D901DA4BB49
:10015000E424203284725E228100C9F124ECA1E5FE
:100160003D2700000000240027002A0000000000B6
:1001700023002600290000000008000201000003FF
:100180000407000000000000000006010B45896C18
:100190008528893853184D08210C210400000000DF
:1001A0000080180000001E0000C0180000007F0042
:1001B000004018000080630000401800008001002B
:1001C0000020180000800100002018000080010CB1
:1001D0000C30D801038601180610F80303860318B3
:1001E00006183806030607180608380603060E1810
:1001F00006081806030618300304180603067030B4
:100200000304180603066030030618060306E030F0
:10021000030218060306C020010318060307C0E006
:100220000101180687C7E0E001011806FFC661E07A
:10023000810118067B867FC08000180603001EC05F
:10024000C00018060300000040000000030000008A
:100250000000000003000000000000000300000098
:10026000000000000456272756042446575746240A
:100270000400B61B970AB71AA612B41BFF07FF0F9C
:10028000FF0FFF0FFF0FFF07FF077F0C7F0C7F0C97
:100290007F0CFF07FF070F0C0F0C0F0C0F0CFF0755
:1002A000FF07210C210C010C210CFF0780C06033DB
:1002B0001E0C4000A000A00010011001080208025E
:1002C0000404040402080208FF1F04041F0E0400B3
:1002D0000300800300C002006002003702001D021C
:1002E0000009424009822009021109020A09020498
:1002F00009020A0902110982201D424037020060EA
:100300000200C0020080030000030000830080039D
:1003100001C002026002043712081D2208094210BF
:1003200009C210098210098210098210098210097D
:10033000C2100942101D2208371208600204C002D0
:10034000028003010083000003000080F32600C048
:10035000922A0060922A0037922A001D922A0009F0
:10036000F23200090200000902000009020000093F
:10037000020000090200000902000009F2DE031D6C
:100380001252003712520060F2D203C08212028071
:1003900083120200F3DE03000000000000000000F2
:1003A000000000000000000000000000000000004D
:1003B000000000000000000000000000000000003D
:1003C000000000000000000000000000000000002D
:1003D000000000000000000000000000000000001D
:1003E000000000000000000000000000000000000D
:1003F00000000000000000000000000000000000FD
:1004000000000000000000000000000000000000EC
:1004100000000000000000000000000000000000DC
:1004200000000000000000000000000000000000CC
:1004300000000000000000000000000000000000BC
:1004400000000000000000000000000000000000AC
:10045000000000000000000000000000000000009C
:10046000000000000000000000000000000000008C
:10047000000000000000000000000000000000007C
:10048000000000000000000000000000000000006C
:10049000000000000000000000000000000000005C
:1004A000000000000000000000000000000000004C
:1004B0000000000000000000000000FC1FE0FF0042
:1004C0001800000000000000000100FCFFE0FF0732
:1004D0001800000000000000000700FCFFE1FF0F13
:1004E0001800000000000000000F00FCFFE1FF1FEB
:1004F0001800000000000000003F00FCF8E3FF3F90
:100500001800000000000000003F00FCF0E3873FFF
:100510001800000000000000003F00FC0000003F49
:100520001800000000000000003F00FCF0E3073E60
:100530001800000000000000003F00FCFDE1077E05
:100540001800000000000000003F00FCFFE1077EF3
:100550001800000000000000003F00FCFFE0077EE4
:100560001800000000000000003F00FC7FE0077E54
:100570001800000000000000003F00FC00E0077EC3
:100580001800000000000000003F00FC00E0073FF2
:100590001800000000000000003F00FC00E0873F62
:1005A000180000000000000000FF7FFC00E0FF1FBB
:1005B000180000000000000000FF7FFC00E0FF1FAB
:1005C000180000000000000000FF7FFC00E0FF0FAB
:1005D000180000000000000000FF7FFC00E0FF03A7
:1005E000180000000000000000FE7F7C00C07F00BB
:1005F00000000000000000000000000000000000FB
:1006000000000000000000000000000000000000EA
:1006100000000000000000000000000000000000DA
:1006200000000000000000000000000000000000CA
:1006300000000000000000000000000000000000BA
:10064000000000000000000000E789E33C701C91FE
:10065000C8731C44040000008020483044082291E4
:1006600088102644040000004020083044042191F2
:100670008910264C0400000040E029F02404219158
:100680008A70365404000000402C2836340421912E
:100690008A1016540400000080284834240822914F
:1006A0008C1026640400000080E789F744781E8ED1
:1006B000887026440E0000000000000000000000CA
:1006C000000000000000000000000000000000002A
:1006D000000000000000000000000000000000001A
:1006E000000000000000000000000000000000000A
:1006F00000000000000000000000000000000000FA
:1007000000000000000000000000000000000000E9
:1007100000000000000000000000000000000000D9
:1007200000000000000000000000000000000000C9
:1007300000000000000000000000000000000000B9
:1007400000000000000000000000000000000000A9
:100750000000000000000000000000000000000099
:100760000000000000000000000000000000000089
:100770000000000000000000000000000000000079
:100780000000000000000000000000000000000069
:100790000000000000000001020408102040800159
:1007A00002040810200102040810200000000025A7
:1007B0000028002B000404040404040404020202C0
:1007C000020202030303030303026000040405059D
:1007D000040606141F00FB15FB150002E705CC08F4
:1007E0009620060020E802210CA32E88C20F0C855B
:1007F000280100220A8670EC028B20B100232FAB67
:1008000026D8CE903143C60C193364CC88412306D8
:100810008D18F1E0C1901183460C79F060C49031DD
:1008200043048D183462CC903143C60024204B67BA
:10083000D7D2C0C90C25193362948523C915A4C326
:1008400091A64C8920330491B98113012528AB2648
:10085000D8C620114546080932A288982103054EC2
:1008600028704281D30D1C2864CC102223464843B3
:1008700062CC10002623AB26D80EB13348068D1863
:100880003462E4C081E4889932356284891146B2C9
:100890004143240DA21300270A83688C4689202136
:1008A000002816A532E84E982123860C1132FF4607
:1008B000CC903143C684002918A632E84A98416397
:1008C000068D9948A231B311339331434685012AED
:1008D0001528EDEB8E9820424688504244858821A9
:1008E00042C288012B0E082DE9CAA8691E241935B9
:1008F00006002C0AA3AC8746882251002D0868EC1C
:10090000E9C283042E09632C88468812002F18AA96
:100910002AE8DEB071938D9B6CDC64E3C6899B4E44
:10092000DC64E3A6033015AB26E84EA93329068D17
:100930001865FF8F86A439550600310DA632E8CE22
:1009400024245A8C99FF1F321CAB2AE84EA9332964
:10095000068D186555A971E4A623371DB909C73D51
:10096000783000331CAB2AE8C207E3261C378EDC44
:10097000C06206470E9C0B41234A104164060034B6
:100980001CAB26E892C0190A9CDDC0290609193360
:1009900064CC90310F1E8C1A381B00351BAB26E837
:1009A000C20706678826898A4123460D9CA12943F0
:1009B00043D29C2A0300361DAB26E84EA9332906F4
:1009C0008D186570423449540C1A31CA1E0D497392
:1009D000AA0C003718AB26E8C20786460C1A386EF8
:1009E000E0EC06CE6EE0EC064E0500381EAB2AE8C1
:1009F0004EA93329068D1865AB3343D29C49316823
:100A0000C4283B1A92E6142100391CAB26E84EA9F3
:100A10003329068D18658F4828498370425386868E
:100A2000A4395506003A0E83ED88828811E141858C
:100A30002801003B0FC36D88828811E1418528128F
:100A400005003C118731E996A03143A811258A1091
:100A5000A9A9043D0B09E9D8C203F6601E303E1176
:100A60008731E9423051A466346612328382013FF5
:100A70001BAB26D84EA93329068D183570BA71C420
:100A8000A81B38EF41851C280A00403E33E7569BDF
:100A90005985ADC8912139668C911163CE88187340
:100AA00046C490698C4C63641A23D31899C6C83421
:100AB00046A631328D9169CCB018C3640C0942E46A
:100AC000419007D18EA51A004122AA2AE8CEB8711A
:100AD000C4A8AA95884122C68C183344CC1031434F
:100AE00086609162908841A54A0D4227AB26D8C204
:100AF000A12449068D18346294884123068D4882CA
:100B000026C9181283468CB2D188412392A0390499
:100B1000004317AB26D84EA93329068D186570FE01
:100B2000578686A4395506004415AB26D8029A2468
:100B30002A068D1865FF8F46A8488206004512AB2D
:100B400026D8C20706E7211A6C06CEC3070F064651
:100B500010AB26D8C20706E7211A6C06CE1F024743
:100B600017AB26D84EA93329068D1865709EE4CAA6
:100B70008E4828498300480FAB26D8C228FBAB0714
:100B80000F52D95F0D4908A32E88C21F0C4A10AB23
:100B90002AE8E2FCFFD094A121694E95014B21AADD
:100BA0002AE8C2203367460C998B31670C952A4599
:100BB000AC54294367468C1932372306191A4C0D59
:100BC000AB26D8C2C0F9FF872A1E1C4D1DAB26D804
:100BD000C2284387D02051A1E2C11726469810624F
:100BE00042889120A6ECD5004E1AAB26D8C22853D5
:100BF000872E42832649262646981861243718DD19
:100C00006A004F15AB26D84EA93329068D1865FF0B
:100C10008F86A439550600501BAB26D8C221344913
:100C2000068D183462948D468C2191044DB181F368
:100C300043005115AB26D84EA93329068D1865FF00
:100C40008F86A4417402005229AB26D8C2213449B0
:100C5000068D183462948D468C2191040D9A21637F
:100C6000C6889964CC904142068D1834629408007D
:100C7000531AAB26D84EA93329068D18657020BDAE
:100C80009CA1294343D29C2A0300540DAB26E8C201
:100C9000078306CEFF3F025510AB26D8C228FBFFC4
:100CA0004743D29C2A03005620AA2AE882A85286EB
:100CB0000C89182444CC103143E689201183440C5C
:100CC000B2A818BD1304005730AB26D8C2A04323E6
:100CD000068D183462D0884123068D1812628890E0
:100CE000104344881822C2880823798286C41812C7
:100CF00063868C193204005829AA2AE882284366A0
:100D00008688193213312306891854AA18A9AA44CF
:100D10008C19316688982143C48C18246250A9012B
:100D20005921AA2AE882284322C68C1833448C9879
:100D30001163468C315515B971E2A61337D9B8E95C
:100D4000005A1CAB26E8C207E3C88D23378EDC3877
:100D500072E3C88D23378EDC38720F1E0C5B0DA634
:100D600032E8C20333F3FFCD83015C19AA2AE8C23B
:100D7000B881E3261C37E1B809C74D386EA0C071B1
:100D800003050E5D0DA632D8C28331F3FFCD0303F8
:100D90005E0B88ACEDCAA0322226195F084EA0E790
:100DA000C28306600A8530EDC29831820461200C4E
:100DB00026E84EB143694409193562D4C841485404
:100DC000AC183562D488512358AC2922006217AB85
:100DD00026D8C2C039449344C5A011A3EC8F46A8BD
:100DE0004882060063160B26D84EA93329068D18B3
:100DF0006570BE323424CDA932006412AB26D8E22D
:100E0000BC4192A2D129FB23124AD22065180B269D
:100E1000D84EA93329068D1865EAC18384331A9206
:100E2000E65419006615AA26D812A93347C6081930
:100E300037AB14D98C9B7F0500671FABE6D60E92AB
:100E4000148D468CB2EACC903487880D1C692885B5
:100E50008A51A69AA43902006813AB26D8C2C039B9
:100E6000449344C5A011A3EC7F35006910A42A88DF
:100E70008290214147CCFF058921026A1448EFD6B0
:100E800096B061E1C18D9AFF5F9551718608006B44
:100E900021AA26D8C2B87964CD883123864C316620
:100EA000C4184386CE9C213164CC88312306191A9C
:100EB0006C0DA62688C298F9FF37268A106D2B1371
:100EC0002658039A32298E3C183188D08851A34C79
:100ED0008D3235CAD42853A34C8D3235CAD4285309
:100EE000A34C8D3235CAD4046E100B26D8029A2436
:100EF0002A068D1865FFAB016F140B26D84EA93357
:100F000029068D18657F3424CDA932007017ABE611
:100F1000D6029A242A068D18657F3442451234037E
:100F2000E710007112ABE6D60E92148D4ED91F91C8
:100F3000509206E13C720D0826A8C20326A6E67F61
:100F4000050073160926B84A99136C2C2B65C89CAA
:100F5000196B461C394306007411A72698C6A0B920
:100F6000796062D0FCAB228506750E0B26D8C228AC
:100F7000FB3F22A1240D0276210A2AE882A852868C
:100F80000C89182444CC10314366226688201183D2
:100F9000440C3254AA1819007736132658C3A829CE
:100FA000444D3168D4884184848C2933644C993110
:100FB00062CA4C5266121143048D98D1885989181F
:100FC0002262941111A3CA142B53AC4C190078223D
:100FD0000A2AE882284342C40C192248C4A062C4E9
:100FE000C68D23554AC4982162C48C182442D4006B
:100FF0007925ABE6E68AA02182868C193246CC9010
:1010000041420609193462D00851C66A468EE08C06
:101010000C1D1B06007A150B26D8C207E3C6919B50
:101020008E18B9E9C88D7BF060007B17282FE79AEE
:10103000206A46CD4763080D23356CD4BCA26A5C98
:10104000007C086377D7C23F307D18282FE7C2287D
:10105000AA868D9ACF880922336A3E1A5386903029
:10106000007E0E8BA4E98698212BD4080A01007F0C
:10107000060020E80200000004FFFF0000BF00039C
:10108000030404040405160CF9FE08FE08FE019092
:10109000035B0A272005009814210B848954928948
:1010A00048293C01220845CA16122E0223128789BC
:1010B00078925824648A0423215324169101241120
:1010C000B7799851614592349C0E27A14931082582
:1010D0001489893A334A4842114DC4929124A2148A
:1010E000A14D00261288897943894C129C5422A470
:1010F000484416B300270742CA138700280DA46985
:101100007421894822D2169300290BA46854319186
:101110005E9462002A0A44CA5511092505002B0C69
:101120007789985169EC169506012C094368349526
:101130008804002D0613B913032E06238914062FE5
:101140000CA868D7E26471B238590C300E878978E0
:101150002315118D492212CD00310B848B189489EF
:1011600048CB4404320C87893865A950312AB40031
:10117000330C87893865E1842C552901340F878920
:10118000B8C2592416114924472500350D878958BE
:101190001569983A154E4A003610878958155944F2
:1011A0006811494412918804370C868A184699625E
:1011B00050261402380F878958241591885491912C
:1011C00044240039108789582415914424314A62F7
:1011D0009212003A09638934CA1209003B0C8468F0
:1011E00054923948329288003C0B7789D8C1D1B2E9
:1011F000781C013D084799187784033E0B7789389E
:10120000E1B178B418063F0B858A164499483B44EF
:10121000064013898979C4A40845120A4922921408
:10122000253968084110888898D3614426918544FF
:1012300097205100421087895715914424512A491B
:101240004A120B00430D8889782559442A561E5BA3
:10125000004411898959A615A14428114A6492D1E4
:10126000C406450D87895715A9B424154A2D004693
:101270000D87895715A9B424154AA50047108889F8
:10128000782559442A9649649291C802481389895D
:101290005932C96822139D642299443691890049C4
:1012A0000B848954928948CB44044A0BA66896DA89
:1012B00084BA8966004B118889582A1391442609FB
:1012C000D624A2C944364C0B86893733A1B699D0AF
:1012D000004D148A893AB3C96CC212918C221395BD
:1012E00089268954024E1688893932C94832924477
:1012F00024A18824229A88263209004F10898979EE
:101300004491229528114A46B21A00500E87893717
:101310001691442451224955015111A969794491EA
:10132000229558948C6475C81C30521087893816E1
:10133000914424512249442AA201530B878957150D
:10134000E99055A504540C888A188798582AD61114
:1013500000551288893832894C222B4964129944ED
:10136000162B015611888A184262641413C5244151
:1013700049703A0457168A8A1B22114914914C5419
:1013800026214969329BCC2633005810898858326F
:10139000D1244A1D4F8922351100590E878A1732F0
:1013A00089922436154A15015A0B88895856E970D6
:1013B000ABF4025B0CA5685423594CB7986C045CE1
:1013C0000BA46A16C158C658C6005D0CA5685433F4
:1013D000594CB79868045E0D76999841B548481203
:1013E0000AD1025F0615781605600613FC17036123
:1013F0000E67895715C92454995826120062108720
:101400008957C2A1646299284526921200630C662E
:10141000895614D94C280A5100640D8789B74A159A
:10142000A59044327101650C6689571409C9248B53
:101430005000660CA66975231949A84DA8086710C5
:10144000876977A49044529998249298A404680FCD
:10145000878957C2A1646299A858942400690B84B3
:1014600089345391968908006A0DA6689472D04C0D
:10147000A86D269A016B1087895742A948A2442378
:1014800049262209006C0B848954928948CB440474
:101490006D116A893B2A93CAC4521191244A1209D8
:1014A000006E0D678937928965A2625192006F0DB7
:1014B00067895724498D2411896600700E87693722
:1014C0002E13A5904452924A01711087695715C98D
:1014D0002424914C2C13A95004720B6689362A24BB
:1014E000D94C2804730B66885614E14A485201749B
:1014F0000D8489352209453211892600750E6789C8
:10150000372289C4A232B14C2400760E678917B203
:1015100052641293C48642007711698A1A220965BF
:1015200012914C224B93911A00780C678836131154
:101530006D3823A900791088683732894834094EFC
:10154000A7E2E814007A09678837461D2D007B0D55
:10155000A469541291CA44261129017C0CA3695331
:10156000299250164928047D0CA469545A64928922
:101570004845047E0A37A9383251482601A00500A3
:101580009814A10B846834E39096890800A20D8614
:101590008A98318A68A824A18900A30C87897834A5
:1015A000A1544854B400A413898838D250305694BA
:1015B0000825424990128A4A00A50F878A18328965
:1015C0009224362BD5A44200A60DA3695329923844
:1015D0002422098500A711A7695825219344240ACC
:1015E000512731490900A80614FB1704A91289895B
:1015F00059449924544995444593904C4603AA096B
:1016000045CA3696030500AB0D6689575942114D00
:1016100011912402AC0947991857693802AD061395
:10162000B91303AE0D66AA38235124A265141A011A
:10163000AF0614FB1704B00723EB131301B10C77AB
:10164000899851992D1C875900B20A54B235B3506C
:10165000D20400B30954B235B3889002B40613FC27
:101660001703B5108769372289482299285526AA79
:101670005200B611A56A18878865348A8422A14869
:10168000483402B70612BB1802B806226A1704B91A
:101690000952B115124A0400BA0946C956269209E0
:1016A00000BB0F6689371191242451094542490036
:1016B000BC14898C1A5249302413C52423499268DA
:1016C00014B24600BD12898C1A5249302413C54CFD
:1016D000B2902C936C02BE138A8D3A43599A6A4495
:1016E0005291A48966218A3402BF0B85687672887C
:1016F000489B9000C010988898D3C5884C220B89CD
:101700002E41A200C1109888D8C2E9302293C84265
:10171000A24B9028C2109888B8C3E9302293C842DF
:10172000A24B9028C310988898C4E9302293C842ED
:10173000A24B9028C410988898C4E9302293C842DC
:10174000A24B9028C5109888B8D2C5884C220B8926
:101750002E41A200C6138C88DBD639242287448A06
:1017600021B15524955900C710A869782559442AF4
:10177000561EDBE2002100C80E978997B28A545AA0
:10178000920AA51600C90E978997C18A545A920ADF
:10179000A51600CA0E978977B38A545A920AA516DD
:1017A00000CB0E978957B48A545A920AA51600CCDA
:1017B0000C94893423C944A4652202CD0C95895424
:1017C00023D148A6692403CE0C95893424D148A698
:1017D000692403CF0C95893424D148A6692403D009
:1017E0001189895936D1647692082532916862034D
:1017F000D117988979249964241949229250441266
:10180000114D4413990400D2119989B952A24891FB
:101810004A94082523590D00D3119989B961A2482A
:10182000914A94082523590D00D41199899953A2FE
:1018300048914A94082523590D00D5119989795466
:10184000A248914A94082523590D00D61199897907
:1018500054A248914A94082523590D00D71077893E
:1018600038C18848348DCE4292600400D8148A89E9
:1018700079149168249BC8224A11114934921901A4
:10188000D912988978331599445692C82432892CF4
:101890005602DA12988978331599445692C8243240
:1018A000892C5602DB139889782499442691952433
:1018B00032894C228B9500DC139889782499442630
:1018C00091952432894C228B9500DD0F978A7713EE
:1018D000994449129B0AA58A00DE0F878957428BDB
:1018E0004822922891A45200DF12A7697833898890
:1018F000248949442A2249452A05E00F778997B26D
:101900008A6412AA4C2C130900E10F778997C18AC7
:101910006412AA4C2C130900E20F778977B38A640A
:1019200012AA4C2C130900E30F778977A48A64125A
:10193000AA4C2C130900E40F778977A48A6412AAB1
:101940004C2C130900E50F778997B28A6412AA4CD0
:101950002C130900E60F6A895B878864A28952B25A
:10196000912800E70E86695614D94C280A91A232B4
:1019700000E80D768997228A846492452800E90D53
:10198000768997318A846492452800EA0D768977B2
:10199000238A846492452800EB0C7689572C129296
:1019A0004916A100EC0B74893413918A480900EDA3
:1019B0000B74893413918A480900EE0B758934142D
:1019C00099924C0D00EF0B7589341499924C0D00CF
:1019D000F011A7899761114D2223496A248948345F
:1019E00003F10E77897714C9C43251B1284900F246
:1019F0000E7789973292A4469288443300F30E778B
:101A000089974192A4469288443300F40E778977EF
:101A10003392A4469288443300F50E778977249256
:101A2000A4469288443300F60E7789772492A44620
:101A30009288443300F70B77897872A43B920C00AC
:101A4000F80F68895716C94434918C26222200F970
:101A50000E778977231589456562994800FA0E77D4
:101A60008977231589456562994800FB0E77895768
:101A7000241589456562994800FC0F778977149190
:101A80004462519958261200FD1098689723994492
:101A9000249A04A75371740AFE11A76957D2A86447
:101AA00062992885249292540AFF109868772499A5
:101AB00044249A04A75371740A00000004FFFF0035
:101AC00000400304030404010105080700FF0700A8
:101AD0000700018200000334200788E1C7110021BC
:101AE0000988E111D3B92C00220988E110D17BB417
:101AF0000023118861911039919091909110399142
:101B00009004240C88E189B290AB93B00A06250EAC
:101B1000886194911091D244424612002611886146
:101B200019929091101A929810919990042709880F
:101B3000E111538F1A00280A88619252A64E29009B
:101B4000290A88619153A64A31002A0C88E1503451
:101B5000733324210F0B2B0B88E1151332129307DB
:101B6000022C0988E1472526250C2D0888E107B5B8
:101B700047032E0888E1472D260B2F0A88610B9317
:101B8000D2593800301188E128919190919091902C
:101B90009190112905310A88E1911AD391250032DB
:101BA0000D88E128911193A19112BB04330E88E1B5
:101BB00028911193A19390112905340D8861A19169
:101BC00010D1C995982800350D8861B810B31393CA
:101BD00090112905360F88E1289191103391919049
:101BE000112905370B8861B8909152A62D00381045
:101BF00088E1289191901129919190112905390F2F
:101C000088E128919190113193901129053A0A8821
:101C1000E11513179307023B0A88E1151317931276
:101C2000063C0888E1D29D96003D0988E10731B560
:101C300007053E09886191D34A63003F0C8861A182
:101C40008911139A12970540138861A1098A0851D6
:101C500011122111122142124802411188E12891EA
:101C60009190919091B89091909104421088613038
:101C70009191909130919190913005430D88E12898
:101C8000919110D346A41400441188613091919031
:101C9000919091909190913005450C8861B8101306
:101CA000331113BB04460B8861B81013AB11530EEC
:101CB000471088E12891911013999091901129056E
:101CC00048128861909190919091B89091909190E4
:101CD0009104490888E111D3B7004A0B88E112D377
:101CE000858C4829004B1188619091105121432423
:101CF0002123A24612004C09886110D3B34B004D3A
:101D0000128861909158712111A1464246424612B3
:101D1000004E12886190911891A0504121322123E8
:101D20002123094F1188E1289191909190919091F0
:101D300090112905500F88613091919091909130C8
:101D4000111307511288E1289191909190919091EF
:101D50009011A993005211886130919190919091C6
:101D6000309191909104530E88E128919190AB931A
:101D700090112905540988E13012D35B005512886F
:101D80006190919091909190919091901129055628
:101D9000118861909190919091901191101A0B0679
:101DA0005713886190919091908850112171B142A0
:101DB000461200581288619091901191101A921059
:101DC0009191909104590B88E110D11B2A31B500F3
:101DD0005A0A8861B81ADAD525005B0A886121128F
:101DE000D31929005C0988E188D3BB48005D0988C4
:101DF0006121D32352005E0C88610A1B9290498FA7
:101E000006005F0888E1C7F6200000000004FFFF1D
:101E10000000BF00030304040204050B0DFFFD07CF
:101E2000FD07FD015802DF08E7200500A604210791
:101E30007223C521442208337345442500230E75BF
:101E4000A24D52245249A924452200240E955E55E4
:101E50006C12B1092591B51000250E7763CE84B2BE
:101E6000124D9944942600260F776396501293C41E
:101E7000269489483411270631F3C400280BA3D5D2
:101E8000544412D129240A290DA3164548149268F6
:101E9000894842002A0A55AA55A8322985002B0AEA
:101EA00055A25530540A86002C07321F0525002DF7
:101EB0000613EAC4002E0622E204012F0B73E2543B
:101EC0008A2422098500300A74628DCA2E11090005
:101ED000310974628D64A40B01320A74628D84240A
:101EE0004A3A04330C74628D242292C826150034B9
:101EF0000D75625D4C14498A94641200350A74624F
:101F0000C564125BA900360B74629544C9328948D6
:101F100000370C7562CD21128AC9624A00380C74F0
:101F2000628DCA2422894C5400390B74628D24B20C
:101F3000221955003A0752230589003B07621F0505
:101F400089123C0955A29D64221C0A3D0735A6450D
:101F5000B5003E0A55A285702899C8003F0C74A3AD
:101F60008D2432118545120040199ADA5E5118927B
:101F70004822134968120A4D429188481293836A95
:101F800000410E78E15D1C209D4664B5D06442425C
:101F90000C76E24549A2852451B900430B76E2CD87
:101FA00089A838915000440F772286494524114969
:101FB0004412D12102450C76E2854514119284A287
:101FC00003460E76E285451491844892908C04472E
:101FD0000C76E2CD89282991241400480C7862C639
:101FE0006822D264D26534490974620545A40B01A4
:101FF0004A0B855E0D49A64B4432024B0F7722C631
:1020000064220A496234894862124C0B76E2054D1B
:10201000A8292239044D1179A20669B214518A28DF
:1020200045945224B3014E127722C664220A4D42CF
:1020300091516414928C22004F0A76E20D45C493AC
:102040008402500C76A24549A28524949100510B3C
:1020500096DA0D45C49384261D520F77E2454D2232
:10206000928868929844B200530A75A28D893623EB
:102070005900540B76E2C54512126AA30055107739
:10208000E2054529240A8942A290283602560F7893
:10209000220649220B4D8292E0581C0457137AA263
:1020A000C664A229245192488292A1441C8A0158F4
:1020B0000F77E2C548228A0D871151482221590E17
:1020C00078220665228B4982635512005A0C76E20B
:1020D000C5213492298D0E015B08A3164545BF0C1E
:1020E0005C0A73E24428240A89125D08A316C544D9
:1020F000BF145E0945AE556C2299055F061556451D
:10210000016007223A452800610B55628D28229A0A
:10211000442405620E7561C54C369244241149640D
:1021200002630954624D6524890C640B76A2D55074
:1021300044D1278900650754624DE536660A74E18B
:1021400094444211A910670E85568D2522094D64CD
:1021500094508402680E7661C550489284242149C7
:102160004822690772E284E8306A0AA3168D50A2F9
:10217000170A006B0D7661C550452534934426023D
:102180006C0773E1C4441F6D0F5822462422BA48DD
:10219000222A1195C8006E0A56A2454424D19701FF
:1021A0006F0A55A2CD44C2229900700F855505498A
:1021B0001291442491914C3402710E8556CD4412F3
:1021C000914424A199DA007208542285E4A404738E
:1021D0000753220D6552740A742155484211A9090A
:1021E000750D5562858412914424A10900760B5522
:1021F000628584121A094300770E57A1852442494B
:102200008A8C889110007809546285A422A90879E3
:102210000E855685842219CD8221990C007A0854A6
:102220006245454B017B0CA4159544A4229289D4A8
:10223000047C07A1D7C461007D0DA416854CA4269B
:1022400092885444007E0725AA8D1600A00500A69A
:1022500004A107721705E910A20D759E5DC81291C1
:102260004466A41000A30D75A2D5441211554493E1
:102270008900A40C55A6452C328A8426B100A50DF0
:1022800075A285842299C566B10900A60771E3C4C9
:102290006400A70F945A8D24428A44249111252268
:1022A00001A8071336452400A9107763D62C2524EE
:1022B00091C44492B4D80800AA08632685AC121BC6
:1022C000AB0B55A255246F91582400AC0735E74558
:1022D0003101AD0613EAC400AE0E7763D62C253269
:1022E0005192E4161B01AF061336C500B009343213
:1022F0008D24149100B10B75A25530540AC6010506
:10230000B20843EECC246500B30843EEC424360182
:10231000B40722378D0400B50F8556858412914489
:1023200024114A502603B616A696CD2112994426AA
:1023300021492C128BC422B1482C1201B70621EB83
:102340008400B80732D7446800B90843EE4C4414FF
:1023500019BA0963264D8A247100BB0B55A2452486
:10236000168945F204BC1177E24D2C228A854294ED
:10237000584456894500BD1077E24D2C228A85428B
:1023800014512429D300BE1077E2C52863242449C0
:102390008BC82AB10800BF0C74978D481C924C2240
:1023A0001200C012A8E1551C12478903A4D388ACBF
:1023B000169A4C08C111A8E165388E120748A7117A
:1023C000592D349910C212A8E15D3812478803A430
:1023D000D388AC169A4C08C313A8E1952416912310
:1023E000C401D26944560B4D2604C41098E1553AF5
:1023F000380E904E23B25A683221C512A8E19D349E
:102400001415C701D26944560B4D2604C60F7961D5
:10241000D66D94228D908A2111A500C70EA6D6CD27
:1024200089A83891D0C2411100C80EA6E255380ED5
:10243000B1882242925074C90EA6E2653AC4228A3B
:10244000084942D101CA0FA6E2952C14075844113D
:102450002149283ACB0E96E255240EB088224292AA
:102460005074CC0AA4624D304A11E942CD0AA462EC
:10247000553245A40B01CE0BA4628D2414A488749C
:1024800021CF0A946245284811E942D00E7722866E
:102490004945645192880E1100D116A72296241442
:1024A000918326135168128A8C22A390641401D25E
:1024B0000DA6E255380EA28878925000D30DA6E200
:1024C0005D300EA38878925000D40EA6E2952C14AD
:1024D0008750443C492800D50EA6E29524450EA11C
:1024E0008878925000D60D96E24D280EA1887892F9
:1024F0005000D70B56A285484293514402D80E96FD
:102500001F6E8422A2582A2409250AD914A7E2554D
:102510001C1087519442A29028240A89622300DA71
:1025200013A7E265340EA32885442151481412C52F
:102530004600DB14A7E29D301487509442A29028F5
:10254000240A89622300DC1297E2553A84A214120D
:102550008544215148141B01DD10A8226E380EA4B9
:102560004C64314970AC4A02DE0C76A2C59024D18D
:1025700042929100DF0B75A2CD44B41211AD08E078
:102580000E85624D340E1145449388A400E10D85FB
:10259000625D3A4414114D229202E20E8562552C7E
:1025A00012078822A2494452E30D85628D76802865
:1025B000229A442405E40D75624D3A4014114D22CF
:1025C0009202E50E8562552C128B8922A249445253
:1025D000E60C57228E8432895C469301E70D8456BF
:1025E0004D6524894C82210900E80984624D305CE4
:1025F000B90DE90984625D285CB90DEA0F85625561
:102600002C921699482214E10400EB0874624D6A7A
:10261000E536EC0882E244287418ED0782E28CEC7F
:1026200030EE0983E24C36892E00EF0A73E244242F
:1026300026D10500F00E95A24574248A0825168A35
:102640006402F10D86A28D24450E898824FA32F2A7
:102650000D85A24D340E994858241300F30C85A221
:102660005D3A642261914C00F40E85A2552C12074C
:102670004C242C920900F50C85A28D76C044C22210
:102680009900F60C75A24D3A602261914C00F70A50
:1026900055A2551C50078400F80C759E5D68226198
:1026A000918C6200F90F85624D340E905022928811
:1026B000243401FA0F85625D3A404289482292D063
:1026C0000400FB0F8562552C129650229288243408
:1026D00001FC0E75624DB28412914424A10900FDE3
:1026E0000FB5565D3A4042918C66C1904C06FE1182
:1026F000A555C54C3692442411496424138D00FF1E
:102700000FA5564DB2842219CD8221990C000000EC
:102710000004FFFF00001C2611241FBECFEFD8E0ED
:10272000DEBFCDBF11E0A0E0B1E0E0E5F7E602C01A
:1027300005900D92A03EB107D9F725E0A0EEB1E0DB
:1027400001C01D92A33BB207E1F713E1CCE8D3E14E
:1027500004C02197FE010E94E930CB38D107C9F7A8
:102760000E94CE260C94A6330C940000662329F018
:102770006A3019F0862F90E008958FEF9FEF08954B
:10278000CF92DF92EF92FF920F931F93CF93DF933D
:10279000EC01842F8770E1E0F0E0082E01C0EE0F1D
:1027A0000A94EAF73E2F7E0199E7E90EF11CD70162
:1027B0009C9110E0923018F41E2F913029F150E0D6
:1027C000487FE8ADF9ADC880D980D60150969C917C
:1027D000949F6001959FD00C11246C0D7D2D711D6F
:1027E000DF01A60FB71F011115C08C91812B832724
:1027F0008D932150D1F7DF91CF911F910F91FF90D1
:10280000EF90DF90CF90089530E0D9CF110F330FC4
:10281000222389F39C91912B93279C938F5F877040
:1028200021508111F3CF9CADA90FB11DF70190810B
:10283000923028F4913009F031E011E0E9CF31E035
:10284000E7CF80E0089580E008959B01DC011896B1
:10285000ED91FC9141E067E10994833081F028F427
:10286000813099F08230A9F008958730A9F088303E
:10287000C9F08430B1F4809180008F7D03C08091D5
:1028800080008F7780938000089584B58F7784BD12
:10289000089584B58F7DFBCF8091B0008F778093B2
:1028A000B00008958091B0008F7DF9CFCF93DF9372
:1028B000282F30E0F901EA58FE4F8491F901E956DA
:1028C000F84FD491F901EB54F84FC491CC23A1F007
:1028D00081110E942D14EC2FF0E0EE0FFF1FE45940
:1028E000FE4FA591B491EC91ED2381E090E009F4C5
:1028F00080E0DF91CF91089580E090E0FACF1F93C0
:10290000CF93DF93282F30E0F901EA58FE4F8491EE
:10291000F901E956F84FD491F901EB54F84FC491FD
:10292000CC23A9F0162F81110E942D14EC2FF0E07A
:10293000EE0FFF1FE555F84FA591B4918FB7F894AE
:10294000EC91111108C0D095DE23DC938FBFDF918D
:10295000CF911F910895DE2BF8CFCF93DF9390E0B6
:10296000FC01E956F84F24918B54984FFC01849157
:102970008823D1F090E0880F991FFC01EE59FE4F9B
:10298000A591B491FC01E555F84FC591D491623001
:1029900071F49FB7F8943C91822F809583238C9398
:1029A000E8812E2B28839FBFDF91CF9108958FB7A9
:1029B000F894EC912E2B2C938FBFF6CFCF92DF9211
:1029C000EF92FF921F93CF93DF936B017C01809175
:1029D0000501873051F08F3FF9F0DF91CF911F91C2
:1029E000FF90EF90DF90CF900895E9ECF7E0C4916D
:1029F000C7FDF3CF61E087E00E94AD14CC2309F45A
:102A000079C0C23009F09DC08091B100887F836099
:102A10008093B100D9EF73C087E080930501E9ECA2
:102A2000F7E0C491CF3FC9F2C13021F150F0C2307C
:102A300009F43EC0C7FDD1CF61E087E00E94AD142C
:102A4000E0CF14BC15BC84B5826084BD85B58160BF
:102A500085BDECEBF7E0E491F0E0EE0FFF1FE555EC
:102A6000F84F85919491EEE9F7E0E491E0939704B3
:102A7000C0E0C0CF10928000109281008091810050
:102A800088608093810080918100816080938100C3
:102A9000ECEBF7E0E491F0E0EE0FFF1FE555F84FA7
:102AA00085919491EEE9F7E0E491E0939604A2CF4A
:102AB0001092B0001092B1008091B00082608093BB
:102AC000B0008091B10081608093B100ECEBF7E041
:102AD000E491F0E0EE0FFF1FE555F84F85919491DA
:102AE0009093950480939404EEE9F7E0E491E093E9
:102AF000930480CF85B5887F836085BDDCE710E0D7
:102B0000A0EDB7E0A70196010E94DE3028EE33E089
:102B100040E050E00E94BC30C130F1F0C23081F1A1
:102B2000C1115BCFD7BD2093A0043093A104409383
:102B3000A2045093A30480916E00826080936E0083
:102B40004CCFC13031F480918100887F81608093C7
:102B50008100DFE31FE1D4CF8D2F912F9093890067
:102B60008093880020939C0430939D0440939E049E
:102B700050939F0480916F00826080936F002DCFEF
:102B8000D093B300209398043093990440939A040F
:102B900050939B04809170008260809370001DCFE1
:102BA0003FB7F8948091620490916304A09164040B
:102BB000B091650426B5A89B05C02F3F19F001967A
:102BC000A11DB11D3FBFBA2FA92F982F8827BC0187
:102BD000CD01620F711D811D911D42E0660F771FAF
:102BE000881F991F4A95D1F70895089520911104DF
:102BF000260F3327331F21323105ECF4209137049F
:102C0000FC0190E080E0243069F082E00895A0911A
:102C100011042191AC0141515C4FA40FB52FB11D9E
:102C20002C930196861798F380911104680F609396
:102C3000110480E0089581E008951092370481E046
:102C4000809339041092380461E082E10E947F147D
:102C500061E083E10E947F14E9EBF0E080818E7FE8
:102C6000808380818D7F808388E48093B80085E4B1
:102C70008093BC000895CF93DF9391E09093EE038F
:102C80008823B9F0C091B800D091BA008091BC00FF
:102C90008A7B8093BC0060E082E10E947F1460E048
:102CA00083E10E947F140E941D16D093BA00C09346
:102CB000B800DF91CF910895089508950895E091A7
:102CC000E6038091E503E81730F4F0E0EB53FC4FA6
:102CD000808190E008958FEF9FEF08959091E60333
:102CE0008091E5032FEF3FEF981748F4E92FF0E0CC
:102CF000EB53FC4F208130E09F5F9093E603C901C6
:102D000008958091E5039091E603891B990B08953E
:102D1000CF92DF92EF92FF920F931F93CF93DF93A7
:102D20007C01CB018A012091C403222389F0EB01AD
:102D30006B01C40ED51ECC15DD0569F06991D70174
:102D4000ED91FC910190F081E02DC7010995F3CF41
:102D5000642F0E94F615C801DF91CF911F910F914A
:102D6000FF90EF90DF90CF900895CF93DF931F9265
:102D7000CDB7DEB769832091C4032223F9F02091F7
:102D8000E703203258F021E030E0FC013383228356
:102D900090E080E00F90DF91CF9108958091E8035B
:102DA000E82FF0E0EC55FC4F998190838F5F809382
:102DB000E8038093E70381E090E0ECCF61E0CE018F
:102DC00001960E94F615F7CFDC011A96ED91FC9161
:102DD00030E020E00994DC011696ED91FC9130E0A2
:102DE00020E040E069E10994DC011696ED91FC9148
:102DF00030E020E040E068E109949A01DC01169699
:102E0000ED91FC91462F67E10994EF92FF920F93A9
:102E10001F93CF93DF931F92CDB7DEB77C018B0159
:102E2000D8016C91673129F150F46531A0F40F900D
:102E3000DF91CF911F910F91FF90EF9008956A312C
:102E400018F16E3FA1F7F8014181498369E2C7019A
:102E50000E94E4160BC0F80141814983D701169600
:102E6000ED91FC9130E020E0C70109950E5F1F4F06
:102E7000D7CFF80181818983AE014F5F5F4F61E059
:102E8000C7010E94FD16F2CF0F5F1F4FD7011696A4
:102E9000ED91FC9130E020E040E0C7010995C0CF02
:102EA000462FDC011696ED91FC9130E020E066E1C2
:102EB0000994462FDC011696ED91FC9130E020E05C
:102EC00065E10994EF92FF920F931F93CF93DF93E5
:102ED000EC01042F79016D3009F446C050F46B30D9
:102EE000C9F1693009F49FC06A3009F465C080E017
:102EF00046C06E3009F452C06F3099F70E94F41644
:102F0000F7011381110F110F110F6C89160F60E477
:102F1000CE010E945917612F62956F706061CE01DA
:102F20000E945917612F6F70CE010E945017F70150
:102F30006481606BCE010E945017F701408151817E
:102F40006281660F660F660FCE010E94FD1601506A
:102F5000A1F72EC069E171E0442311F064E171E052
:102F6000CE010E9405170AC0411110C06DE071E04A
:102F70000E940517E881F98182898C8B81E0DF91BD
:102F8000CF911F910F91FF90EF90089566E071E04F
:102F90000E940517E881F9818389EFCF0E94F4161A
:102FA00061E8CE010E945917602FCE010E94501790
:102FB000CE010E94EB16E2CFEA85FB8530E020E0EF
:102FC00040E068E2CE010995EE81FF8130E020E02B
:102FD00040E064E1CE01099541E06BE4CE010E943E
:102FE000E416E881F981448169E2CE010E94E41689
:102FF00040E06BE4CE010E94E416E881F98144814F
:1030000069E2CE010E94E41641E06BE4CE010E9429
:10301000E416E881F981458169E2CE010E94E41657
:103020006EE171E09DCF83E591E0998388831C8AEE
:10303000A5CFDC011896ED91FC9130E020E040E056
:1030400069E10994DC011896ED91FC9130E020E0F3
:1030500040E068E10994CF93DF931F92CDB7DEB7CC
:103060006983BE016F5F7F4F0E9425140F90DF912F
:10307000CF910895EF92FF921F93CF93DF93EC01CE
:10308000162F7A010E94221860E4CE010E942B18AC
:10309000E885F9859701412F67E1CE010995CE01B9
:1030A000DF91CF911F91FF90EF900C941918EF9240
:1030B000FF921F93CF93DF93EC01142F79016631B8
:1030C00081F138F4643109F44BC0653179F080E066
:1030D00022C06831C9F150F16931C9F78091A30369
:1030E000882391F1CE010E9419182EC08091A3036C
:1030F000882319F0CE010E941918CE010E942218CF
:1031000060E0CE010E942B18612FCE010E942B1887
:1031100081E08093A303DF91CF911F91FF90EF9007
:103120000895642F0E942B1881E0F5CF8091A303AE
:10313000882319F0CE010E941918A701193138F41B
:10314000612FCE010E943A181092A303EDCF68E1DF
:10315000CE010E943A18185188E1E80EF11CEDCF1B
:103160008E898F3F11F488E78E8BE885F98597016A
:10317000412F64E1CE01DF91CF911F91FF90EF903D
:1031800009940F93DC01DE963C91DE97431BD496A5
:10319000ED91FC9109950F910895CF93DF93FC0178
:1031A000A081B18182AD982F990F990F990F95AF9A
:1031B00050969C915097903208F09FE1990F990F8B
:1031C000990F94AF23AD922F990F990F990F96AF46
:1031D00051963C915197682F620F7727771F3617CA
:1031E000170614F4832F821B97AFEF01C05CDF4FEB
:1031F000880F880F880F890F8883219680EF888336
:1032000054968D919C915597813F910508F4888340
:10321000EE5BFF4F56968C918083DF91CF9108959E
:103220000F93FC01EB5BFF4F3081319650814517C6
:1032300030F4301738F0041728F080E013C030174E
:10324000D0F3FBCFFC01ED5BFF4F30818C5B9F4FD8
:10325000FC018081681740F481E0321718F081E0AA
:10326000261758F70F9108953217C8F3E6CF2F921B
:103270003F924F925F926F927F928F929F92AF9206
:10328000BF92CF92DF92EF92FF920F931F93CF9353
:10329000DF93EC014C0183E4880E911CF401108251
:1032A000329720805E01F4E4AF0EB11CF50120825C
:1032B0003FAC6E01F5E4CF0ED11CF601308235979C
:1032C00040807E01F6E4EF0EF11CF7014082349657
:1032D0001081329760803196708032975080012F34
:1032E000262D472D652DCE010E941019CD58DF4F98
:1032F000811114C01882DF91CF911F910F91FF901F
:10330000EF90DF90CF90BF90AF909F908F907F9085
:103310006F905F904F903F902F90089581E0888349
:10332000552011F0F4015082621410F4F50160820E
:10333000371410F4F60170821415E8F6F7011083C3
:10334000DACF0F93DC01802FFD01ED58FF4F908104
:103350009923E9F12223D9F1223020F0023079F5C6
:103360006F5F621B082F0170FD0180FD32C0EB5BB7
:10337000FF4F8081481758F131968081481738F502
:103380003297908131978081260F2617F0F46917C4
:10339000D8F42FEF290F8217D0F4681708F4682F9C
:1033A000291708F4922F961BD696ED91FC91D7978A
:1033B0000480F581E02D292FCD01099508C0033047
:1033C00089F64F5F421BCECF682F691720F30F910C
:1033D0000895ED5BFF4F80816817C8F331968081B7
:1033E0006817A8F73296908131978081240F2417AF
:1033F00078F4491760F42FEF290F821740F7481728
:1034000008F4482F291708F4922F941BCDCF482F8A
:103410004917E8F6F2CF0F93909179056917A0F05C
:1034200090917A05691780F490917705891760F07B
:1034300090917805891740F4462F682F00E021E02D
:1034400084E395E00E94A1190F910895CF92DF9235
:10345000EF92FF920F931F93CF93DF93C82FD62F36
:10346000142F082F041B481710F0042F081B2D17CA
:1034700040F4FD2EF21A0F15D8F01C17E0F1D12CF4
:1034800010C0F22EFD1A0F1508F03FC0802F0F2D2F
:10349000F82E812F122F282F8C2FCD2FD82FDD24FF
:1034A000D394E02EE694D21768F1CC24CA9418C0C5
:1034B000802F0F2DF82E8D2FD12F182F8C2FC22F4C
:1034C000282FEDCF6D2F8C2FDD2011F06C2F8D2F3D
:1034D0000E940B1AEF18E7FE02C0DC0DE00ECF5F72
:1034E0001C1780F7DF91CF911F910F91FF90EF9004
:1034F000DF90CF900895E02EE694812F1C2FC82FE7
:10350000D22FD12CCC24C394EBCF1C1708F0B7CF0B
:10351000E02EE694812F1C2FC82FD22FD12CC5CF9F
:103520005F926F927F928F929F92AF92BF92CF9253
:10353000DF92EF92FF920F931F93CF93DF93A82E0A
:10354000C62FD42F6801B62EB20E742E780E0B2D16
:10355000272D462F682F84E395E00E9410198823B9
:10356000B1F1D95FD695D695D695ED2EF12C55248F
:1035700053945C0E052D272D4C2F6A2D84E395E086
:103580000E9410198823F1F06090AD05DA2D4601F4
:1035900011E0F4018491812351F16092AD0500E0C6
:1035A00021E04C2F6D2F84E395E00E94A119DF5F8D
:1035B000110F21F4FFEF8F1A9F0A11E07D12E9CF5E
:1035C0006092AD05CE0CDF1CC52DB510D0CFDF91BC
:1035D000CF911F910F91FF90EF90DF90CF90BF9010
:1035E000AF909F908F907F906F905F9008958091A3
:1035F000AC058111DCCF81E0611080E08093AD05E6
:10360000CECFEF92FF920F931F93CF93DF93182F9C
:10361000D62FE42EC22FF82EF40E062F020F2F2DD8
:10362000462F682F84E395E00E941019882319F132
:1036300000E02E2D4D2F612F84E395E00E94A1190B
:10364000C250DF5F01E02C2F4D2F612F84E395E006
:103650000E94A1196FEF6F0D2C2F4D2F84E395E081
:103660000E94A1194C2F4D0F00E02E2D612F84E3F5
:1036700095E00E94A119DF91CF911F910F91FF90CA
:10368000EF900895213039F020F0223031F0840F8E
:103690000895860F0895841B0895861B0895213090
:1036A00039F020F0223031F0861B0895840F089500
:1036B000860F0895841B08955F926F927F928F9278
:1036C0009F92AF92BF92CF92DF92EF92FF920F93B1
:1036D0001F93CF93DF935C01162F642EEC01C15B27
:1036E000DF4FDC80ED804C0189E7880E911CFE8065
:1036F000FD18C12EF11608F4CF2C5B800C85202F0D
:103700004E2D6D2D8A810E94421B782E202F4E2D2A
:103710006D2D852D0E944F1B482F662071F08A85E4
:10372000F40180832C2D672DC5010E94A1191F155E
:1037300048F01F19E394D12CDACF89858111F7CF96
:103740008B85EECF1D0D1C83ED82DF91CF911F91F4
:103750000F91FF90EF90DF90CF90BF90AF909F9030
:103760008F907F906F905F900895DC0118964C9138
:103770001897ED91FC911197249130E0042E02C02E
:10378000359527950A94E2F7842F860F883068F0E4
:1037900031961196FC93EE93E49198E0941B01C04E
:1037A000EE0F9A95EAF72E2B885018968C938FEF90
:1037B0009FEF01C0880F6A95EAF7809582230895EC
:1037C000FC01E60FF11D849190E0982F8827319637
:1037D000E4918E0F911D0895CF93DF9320917F0583
:1037E000309180052817390709F490C0EC019093B7
:1037F000800580937F05FC0184918093900531962C
:10380000E491E0939105FE013296E491E0939205F4
:10381000FE013396E491E0939305FE013496E49122
:10382000E0939405FE013596E491E0939505FE0141
:103830003696E491E0939605FE013796E491E09385
:103840009705FE013896E491E0939805FE013996BC
:10385000E491E0939905FE013A96E491E0939A058C
:10386000FE013B96E491E0939B05FE013C96E491BA
:10387000E0939C05FE013D96E491E0939D05FE01D9
:103880003E96E491E0939E05FE013F96E491E0931D
:103890009F05FE017096E491E093A00561E1CE01E1
:1038A0000E94E01B9093A2058093A10563E1CE01E5
:1038B0000E94E01B9093A4058093A30565E1CE01CF
:1038C0000E94E01B9093A6058093A50580917F053B
:1038D00090918005892BD1F080919D058093A90559
:1038E00040919E054093AA059091A805992371F0F7
:1038F000913079F490919F05891714F49093A9055C
:103900008091A005841714F48093AA05DF91CF91CC
:10391000089530919A0520919C05082E000C990B72
:10392000622F022E000C770B630F711D37FD7A9505
:10393000861797071CF4320F3093A905241734F724
:103940002093AA05E3CF6F927F928F929F92AF92BE
:10395000BF92CF92DF92EF92FF920F931F93CF937C
:10396000DF93EC01062F142F7901FC01E55AFF4F7C
:103970008081813009F445C0D0F1823009F44BC018
:10398000833009F452C0FE01EF5AFF4F0083319695
:10399000108337978081918147962FEFE216F104CB
:1039A00011F008F0E6C0E1E6EE16F10408F447C0B5
:1039B000FE01E159FF4F20813181820F931F9C014D
:1039C0002F5F3F4FF9014491411142C0712C872D67
:1039D000DF91CF911F910F91FF90EF90DF90CF90EB
:1039E000BF90AF909F908F907F906F900895FE0151
:1039F000E35BFF4F0190F081E02DCE010995180F98
:103A0000C2CFFE01E35BFF4F0190F081E02DCE01BC
:103A10000995081BB8CFFE01E35BFF4F0190F081D1
:103A2000E02DCE010995181BAECFFE01E35BFF4FE1
:103A30000190F081E02DCE010995080FA4CFF1E4AB
:103A4000EF16F10408F4BBCFFE01E359FF4FB3CFEB
:103A5000FC0144914E151F0409F086C002960097A0
:103A600009F4B4CF7E01FFE4EF0EF11CF70191835E
:103A70008083108671966081C7010E94B51BF70193
:103A8000868372966081C7010E94B51BA82EF7013C
:103A900087836E01F9E7CF0ED11CF6019081F70103
:103AA000928781E0911180E0F7018387FE01EE5952
:103AB000FF4FB0806B2DC7010E94B51B882EFE0101
:103AC000ED59FF4F1081612FC7010E94B51B982E41
:103AD000FE01EC59FF4F0081602FC7010E94B51B0A
:103AE000015041E050E09A0101C0220F0A95EAF727
:103AF000782E721AF701068110160CF068CFBA946E
:103B0000CA0101C0880FBA94EAF7881AB4849A0CE3
:103B1000115001C0440F1A95EAF7F42FF9199F2E9E
:103B20002B2D4F2F682DF70182810E94421B182FE9
:103B3000F70182832B2D492D682D83810E944F1B15
:103B4000F7018383F1E0BF1609F47CC0BF1608F4C7
:103B50003FC022E0B21609F47BC093E0B91609F425
:103B600082C0082F212F38C0F9012491820F911DA6
:103B700026CFFE01EF58FF4F00811181080F191F5A
:103B8000680160E0C6010E94E01B080F191F62E097
:103B9000C6010E94E01BF4E0CF0ED11C8E159F05DC
:103BA00080F3F801849190E0982F88273196E49172
:103BB0008E2B009709F40ACFE816F90619F4C8010C
:103BC00003964DCFF8013296E4910E0F111DE9CF07
:103BD000202F210F082F0A0D482F612FCE010E94A0
:103BE0001019882309F4F3CEF701148215828E018F
:103BF000025A1F4F4E01FFE58F0E911CF8016081A4
:103C0000C7010E94B51B682EF4016081C7010E94A4
:103C1000B51BB82E40E0662DCE010E945C1B41E032
:103C20006B2DCE010E945C1B61E0C7010E94B51B99
:103C30008111F0CFF70185818A1504F38285F601A1
:103C40008083C5CEBA1821E0210F080F1B0DC4CF09
:103C500091E0392F301B21E0210F9A1901E0080F64
:103C6000890F130FB9CF212F2A0D982F901B01E038
:103C7000080F81E0890FB0CFFF920F931F93CF936E
:103C8000DF93C82FD62F10924C058A01F12CF80132
:103C900061918F01E0913605F091370584E395E05D
:103CA00009958F3F9807F1F08E3F2FEF920779F338
:103CB0009C014D2F6C2F84E395E00E94A31C9091F2
:103CC0008F05913049F030F0923041F0933041F05F
:103CD000F80EDDCFC80FFCCFD80FFACFC81BF8CF36
:103CE000D81BF6CF8F2DDF91CF911F910F91FF90B1
:103CF000089526EB33E130933705209336050C9475
:103D00003C1ECF93DF93EC016BAFEEA9FFA90190AE
:103D1000F081E02D0995EEA9FFA90280F381E02D45
:103D2000CE01DF91CF910994AF92BF92CF92DF92F3
:103D3000EF92FF920F931F93CF93DF9300D000D0A9
:103D40001F92CDB7DEB78C01DC01DA96AC90DA9722
:103D5000DB96EC90DB97ED91FC91B188FE2CD12C99
:103D6000C12CD801ED91FC9111978089D8962D91A5
:103D70003C911C82FD828B83B8E08B9FC001112493
:103D80008C9DA0018D9D500D9C9D500D1124240FE4
:103D9000351F3A832983D8011496ED91FC919E0139
:103DA0002F5F3F4F41E06FE0C8010995F3948F2DDD
:103DB0008E198A1528F4BFEFCB1ADB0AFB1488F2A0
:103DC0000F900F900F900F900F90DF91CF911F9158
:103DD0000F91FF90EF90DF90CF90BF90AF9008953C
:103DE000CF92DF92EF92FF920F931F93CF93DF93C7
:103DF000EC01962F683109F44BC0B901993130F4C8
:103E00009431C9F0973189F080E006C0993109F406
:103E100061C09032C9F781E0DF91CF911F910F917E
:103E2000FF90EF90DF90CF90089550E084EA94E007
:103E30000E948816F0CF8C859D85AE85BF85892B25
:103E40008A2B8B2B71F4E881F981A585B0E020EAFB
:103E500036E841E050E00E94DE306C877D878E8737
:103E60009F871092E6031092E5031092E8031092E8
:103E7000E7030E941D168CE596E190931004809351
:103E80000F048DE596E19093140480931304C3CF3F
:103E90002C853D854E855F8560E074E284EF90E07F
:103EA0000E94BC302051310941095109569547956E
:103EB000379527952093B8008E8990E09595879542
:103EC00091E09093C4038093A2031092E8031092B0
:103ED000E703A1CFD091E703D13208F093C0C0919E
:103EE000A2030E94D0156B017C01809137048111DF
:103EF00064C082E08093370481E0809339048FEFBF
:103F00008093360410925B04D0935A04A4EAB3E081
:103F1000EAE3F4E080E0D8137CC010925C04809166
:103F20005C04CC0FC82BC0935C04809138048130B2
:103F300009F073C0109238040E94D0156B017C0107
:103F400080915C048093BB008091EA039091EB0325
:103F5000A091EC03B091ED03892B8A2B8B2B99F068
:103F60000E94D0150091EA031091EB032091EC031D
:103F70003091ED036C197D098E099F09061717070B
:103F800028073907D8F18091BC0083FDD9CF85EC93
:103F90008093BC000E94D0156B017C018091370496
:103FA0008230E9F1809136048F3F61F180913604CF
:103FB000803241F18091360425C08091EA039091CE
:103FC000EB03A091EC03B091ED03892B8A2B8B2B93
:103FD00009F48BCF0E94D0150091EA031091EB03F6
:103FE0002091EC033091ED036C197D098E099F0936
:103FF000061717072807390708F077CF8091E903DC
:104000000E943B161092E8031092E7031092C4033B
:1040100002CF9D9191938F5F7ECF85EEB9CF809136
:10402000EA039091EB03A091EC03B091ED03892B8F
:104030008A2B8B2B09F4B2CF0E94D0150091EA0392
:104040001091EB032091EC033091ED036C197D0985
:104050008E099F09061717072807390708F09ECF12
:10406000CDCF8F929F92AF92BF92CF92DF92EF927D
:10407000FF92CF93DF937C01C62F6C32B0F46A328B
:10408000E8F5683249F1693209F444C080E0C0348F
:10409000B0F1CF73F701EC0FF11D868D8F3F71F1F9
:1040A000C03108F06DC0642F14C06D3209F456C0E1
:1040B00068F384EB860F823048F7CF73CE0DDF2D87
:1040C000D11D8E8D411158C061E00E94AD1460E099
:1040D0008E8D0E947F1412C02EE1E20EF11CD0E002
:1040E000F70181917F018F3F31F061E0D03108F01D
:1040F00062E00E94AD14DF5FD63191F781E0DF917D
:10410000CF91FF90EF90DF90CF90BF90AF909F90B6
:104110008F900895C42ED12CF12CE12C0E94D01543
:104120004B015C01C114D104E104F10439F30E9494
:10413000D015681979098A099B09683E7340810581
:10414000910580F3F1E0CF1AD108E108F10828EEDB
:10415000820E23E0921EA11CB11CE4CF85E090E00A
:10416000433010F082E090E0880F991F880F991F6C
:1041700005970197F1F7C2CF62E00E94AD14BECF60
:104180000E94561421E0892B09F420E0F701218FC9
:10419000B5CFAF92BF92CF92DF92EF92FF920F9383
:1041A0001F93CF93DF9380916804909169040196E7
:1041B00090936904809368048091680490916904E5
:1041C0000F9709F06FC01092690410926804C091B3
:1041D0009C03D0919D0360919E0370919F038091F9
:1041E000A0039091A10322E0660F771F881F991FFB
:1041F0002A95D1F70E94982FFE01EE0FFF1FEE0FB8
:10420000FF1FE45FFD4F608371838283938321E10D
:1042100037EC4AEB5BE30E944F3060938C04709361
:104220008D0480938E0490938F0410929E031092BD
:104230009F031092A0031092A1034CE0A42E42E031
:10424000B42EC12CD12C760110E000E0C017D107AC
:104250007CF0F50121913191419151915F01C701AC
:10426000B6010E94B52E6B017C010F5F1F4FEECF90
:104270002196BE010D2E000C880B990B0E949A2FDF
:104280009B01AC01C701B6010E94262F60936A040E
:1042900070936B0480936C0490936D04D0939D0392
:1042A000C0939C03DF91CF911F910F91FF90EF90EE
:1042B000DF90CF90BF90AF900895CF93DF93EC0144
:1042C0008DE790E10E94EC1B4FE851E069E080E04F
:1042D0000E94791E2BE04FE76BE080E00E94261AD7
:1042E0002BE04AE160E08AE10E94261A81EC9AE123
:1042F0000E94EC1BAE0169E08DE1DF91CF910C943F
:10430000791ECF92DF92EF92FF920F931F93CF937C
:10431000DF936C01EB017B01E40EF51E10E000E081
:10432000CE15DF0561F06991D601ED91FC91019008
:10433000F081E02DC6010995080F191FF1CFC801C2
:10434000DF91CF911F910F91FF90EF90DF90CF9071
:104350000895CF92DF92EF92FF920F931F93CF9326
:10436000DF93EC016C0124E0C20ED11CFC01E1588A
:10437000FF4F0190F081E02DC60109958E3FEFEFD0
:104380009E07C8F48E010E571F4F7E01F1E8EF0E15
:10439000F11C9C01F8014081F7016081C6010E9477
:1043A000A31CC15ADF4F98819130A9F078F0923068
:1043B000A1F09330B9F081E090E0DF91CF911F91AF
:1043C0000F91FF90EF90DF90CF900895F7019081CB
:1043D000890F8083F0CFF801FACFF7019081981B05
:1043E000892FF7CFF801FACF089590E080E0089583
:1043F000CF93DF938AE00E945614892B39F481E031
:1044000080930B02CE01DF91CF9108958AE00E9444
:104410005614019749F480910B02882329F01092D9
:104420000B02C1E0D0E0EECF88E00E945614892B49
:1044300021F481E080930A02E5CF88E00E945614BF
:10444000019721F480910A02811119C089E00E942C
:104450005614892BC9F089E00E945614019709F07F
:1044600054C080910902882369F28091040281116D
:104470001092040210920902C2E0D0E0C3CF109261
:104480000A02C4E0D0E0BECF80910902811116C0BB
:1044900081E0809309022FB7F89480915E04909197
:1044A0005F04A0916004B09161042FBF8093050266
:1044B00090930602A0930702B09308022FB7F894D6
:1044C00080915E0490915F04A0916004B0916104BA
:1044D0002FBF409105025091060260910702709132
:1044E0000802841B950BA60BB70B893C9105A1050F
:1044F000B10508F487CF80910402811183CF81E058
:1045000080930402C3E0D0E07DCFD0E0C0E07ACF5A
:1045100087E480937C0080917A00806480937A00A5
:1045200080917A0086FDFCCF8091780060917900BF
:10453000762F682F072E000C880B990B0E949A2F5C
:1045400020E030E040EA50E40E944F3020E030E0CC
:1045500040E85AE30E944F309B01AC010E94B52E07
:10456000089581E08093900480919E0390919F0331
:10457000A091A003B091A1030196A11DB11D80934C
:104580009E0390939F03A093A003B093A1038091F7
:104590008A0490918B04029730F46FE070E080E021
:1045A00090E00E94DE1460918C0470918D048091E3
:1045B0008E0490918F0420E030E040EE5FE30E9493
:1045C000212F87FF18C060E08FE00E947F1461E018
:1045D0008EE00E947F1461E080E10E947F1461E020
:1045E0008FE00E947F1461E08EE00E947F1461E002
:1045F00080E10C947F1460918C0470918D04809103
:104600008E0490918F0420E030E040EE5FE30E9442
:104610004A3018168CF460918C0470918D0480914E
:104620008E0490918F0420E030E040E250E40E943C
:10463000212F60E087FD11C060918C0470918D0482
:1046400080918E0490918F0420E030E040E250E4AD
:104650000E944A30181634F461E08FE00E947F1403
:1046600060E0B6CF089585ED8093BC008091EA03A9
:104670009091EB03A091EC03B091ED030796A11D7F
:10468000B11D23E0B695A795979587952A95D1F703
:104690002091BC0024FD03C010923704089540917E
:1046A000EA035091EB036091EC037091ED03452B0D
:1046B000462B472B69F30097A105B10541F025E38F
:1046C0002A95F1F700000197A109B109E1CF809186
:1046D000E9030C943B16FC01A081B18150962C910A
:1046E00082AD38E0839FC0011124289FA001299F3B
:1046F000500D112470E060E080AD91AD0C94FE305F
:104700001F93CF93DF93EC010E94941E1BAD8AADE3
:10471000180FE881F9818189181768F0EC81FD8113
:1047200030E020E040E060E1CE01099580E0DF91DB
:10473000CF911F910895FE01E658FF4F8081882395
:1047400019F0CE010E946B23612FCE010E94811EC1
:1047500081E0EDCFCF93DF93EC01FC01E658FF4FF2
:104760008081882319F0CE010E946B2360E0CE0186
:10477000DF91CF910C94811E1F920F920FB60F9272
:1047800011242F933F934F935F936F937F938F9356
:104790009F93AF93BF93EF93FF9380919804909171
:1047A0009904A0919A04B0919B04892B8A2B8B2B9E
:1047B000D1F190919304E0919404F091950480815B
:1047C000892780838091980490919904A0919A04FC
:1047D000B0919B04181619061A061B069CF48091CA
:1047E000980490919904A0919A04B0919B04019728
:1047F000A109B1098093980490939904A0939A0415
:10480000B0939B04FF91EF91BF91AF919F918F91D6
:104810007F916F915F914F913F912F910F900FBEBC
:104820000F901F90189580910501E9ECF7E0E49155
:104830009FEF90930501E13051F030F0E23069F0E4
:1048400060E00E947F14DECF10926E00F9CF90914D
:104850006F009D7F90936F00F3CF909170009D7FCC
:104860009093700091E09093B0009091B100987F88
:1048700094609093B1001092B300E2CF1F920F9218
:104880000FB60F9211242F933F938F939F93AF9363
:10489000BF9380915E0490915F04A0916004B091F9
:1048A000610430915D0423E0230F2D3758F5019604
:1048B000A11DB11D20935D0480935E0490935F045D
:1048C000A0936004B09361048091620490916304AA
:1048D000A0916404B09165040196A11DB11D80935F
:1048E000620490936304A0936404B0936504BF9141
:1048F000AF919F918F913F912F910F900FBE0F908D
:104900001F90189526E8230F0296A11DB11DD2CF46
:104910001F920F920FB60F9211242F933F934F9334
:104920005F936F937F938F939F93AF93BF93EF9317
:10493000FF93E0910201F09103010995FF91EF913E
:10494000BF91AF919F918F917F916F915F914F91A7
:104950003F912F910F900FBE0F901F9018951F92AF
:104960000F920FB60F9211242F933F934F935F93A3
:104970006F937F938F939F93AF93BF93EF93FF9327
:10498000E0910001F09101010995FF91EF91BF9134
:10499000AF919F918F917F916F915F914F913F91D7
:1049A0002F910F900FBE0F901F9018951F920F928E
:1049B0000FB60F9211242F933F934F935F936F93F2
:1049C0007F938F939F93AF93BF93EF93FF93E09168
:1049D0006604F09167040995FF91EF91BF91AF9143
:1049E0009F918F917F916F915F914F913F912F9107
:1049F0000F900FBE0F901F9018951F920F920FB639
:104A00000F9211242F933F934F935F936F937F9354
:104A10008F939F93AF93BF93EF93FF938091B900D0
:104A2000887F803609F44AC0F0F5883209F4A7C0BF
:104A300018F5803109F49BC0B8F4882309F4F9C053
:104A4000883009F494C0FF91EF91BF91AF919F918D
:104A50008F917F916F915F914F913F912F910F9027
:104A60000FBE0F901F901895883109F488C08032CE
:104A700051F78093360414C0803409F49DC040F48B
:104A80008033B9F38833F9F68093360485ECB0C0EF
:104A9000803509F485C0883509F496C0883499F6C4
:104AA0000E943323D0CF883909F48CC038F5883779
:104AB00029F050F4883611F0803729F683E080938E
:104AC00037041092350457C0883809F47BC0803908
:104AD00019F0803809F0B7CF80913504803208F0A2
:104AE00071C0E091350481E08E0F80933504809190
:104AF000BB00F0E0EB5EFB4F80833DC0803B39F0B4
:104B0000E0F4803A09F479C0883A09F09CCF84E057
:104B1000809337041092120410921104E0910F0454
:104B2000F091100409958091110481110FC081E06A
:104B3000809311041092EF0309C0803C09F4A6CFC2
:104B4000883C09F4A3CF883B09F07DCFE0911204A3
:104B500081E08E0F80931204F0E0E151FC4F8081E0
:104B60008093BB00909112048091110429C0809120
:104B70005C048093BB0085EC8093BC0064CF909173
:104B80005B0480915A04981758F5E0915B0481E02A
:104B90008E0F80935B04F0E0E65CFB4F8081E9CFF1
:104BA000E0915B0481E08E0F80935B048091BB00F9
:104BB000F0E0E65CFB4F808390915B0480915A04A7
:104BC0009817C8F285E8D8CFE0915B0481E08E0F9A
:104BD00080935B048091BB00F0E0E65CFB4F808338
:104BE0008091390481115CCF81E08093380484EA9C
:104BF0008093BC001092370426CF85EC8093BC00D4
:104C00001092370480913504803230F4E0913504FD
:104C1000F0E0EB5EFB4F10826091350470E0E091B4
:104C20001304F091140485E194E009951092350481
:104C30000ACF1092360434CFCF931092A70410926B
:104C4000A60488EE93E0A0E0B0E08093A8049093DF
:104C5000A904A093AA04B093AB048FE691E09093CB
:104C6000A5048093A404109233051092320586EBBC
:104C700093E19093B0058093AF051092B105109227
:104C8000B20510924C0581E891E090933105809334
:104C90003005109235051092340510924905109296
:104CA00040051092410510924205109243058FEF86
:104CB00080934A0580934E05E2E5F5E088E695E0AD
:104CC000CFEFC1938E179F07E1F782E697E19093AC
:104CD00039058093380587E598E190933B058093EB
:104CE0003A0580EF9EE190933D0580933C0581E37A
:104CF00090E290933F0580933E0530E020E040E055
:104D000069E084E395E00E9462171092800510929A
:104D10007F0580EC93E1909369058093680580EBB3
:104D200094E090936D0580936C0581E080936E050F
:104D300010926F0510928C051092AC058093AD0512
:104D40008093AE0589E891E090936B0580936A05A6
:104D500084E395E00E94CD1810927B0510927D05AA
:104D6000C0937C05C0937E05E0916A05F0916B05C8
:104D70000280F381E02D84E395E0099583E294E1DC
:104D8000909382058093810510928F05C0935D05F5
:104D9000C0935E05C0935F05CF910895CF93DF93D5
:104DA000CDB7DEB7E6970FB6F894DEBF0FBECDBF26
:104DB000789484B5826084BD84B5816084BD85B5F6
:104DC000826085BD85B5816085BD80916E00816002
:104DD00080936E00109281008091810082608093A8
:104DE00081008091810081608093810080918000AA
:104DF0008160809380008091B10084608093B100D5
:104E00008091B00081608093B00080917A008460CE
:104E100080937A0080917A00826080937A008091FA
:104E20007A00816080937A0080917A008068809314
:104E30007A001092C100E0913805F091390530E018
:104E400020E040E06AE084E395E0099584E395E0A2
:104E50000E94AA2384E395E00E9480238111FACF67
:104E600060E084E395E00E94811EE0913805F091B6
:104E7000390530E020E040E06BE084E395E00995FF
:104E800062E082E00E94AD1461E083E00E94AD1414
:104E900060E083E00E947F1461E08EE00E94AD1428
:104EA00061E08FE00E94AD1461E080E10E94AD14EA
:104EB00061E08EE00E947F1461E08FE00E947F1429
:104EC00061E080E10E947F1462E08AE00E94AD14FC
:104ED00062E089E00E94AD1462E088E00E94AD14B7
:104EE000109292041092910481EB92E2909301014E
:104EF00080930001809169008C7F826080936900BB
:104F0000E89A80E1809381001092800082E19AE724
:104F1000909387008093860084E18093810089ECE0
:104F200090E2909367048093660481E080936F0021
:104F300090E080E00E94672EE0913805F0913905FD
:104F400030E020E0482F6EE084E395E009958AE0A8
:104F500090E00E94672E90E090938B0480938A04E7
:104F600088E19FE00FB6F894A895809360000FBE8B
:104F700090936000EE24E394F12C52E0C52ED12CE6
:104F80005E0122E3A20EB11CA8958091910490913C
:104F900092048230910509F486C268F4009709F4FE
:104FA00048C0019709F461C080E090E0892B61F36B
:104FB0000E940000E2CF8330910509F428C30497D2
:104FC00099F784E395E00E94AA23332433948091D7
:104FD000720481110BC08AE090E00E94672E90E07D
:104FE00090937104809370043092720480ED91E08C
:104FF0000E945D210E94F821009709F4BAC36091D4
:105000007004709171048330910509F4F0C3843009
:10501000910509F4E1C3019709F0ABC31616170611
:105020000CF0A3C361507109709371046093700414
:10503000A0C384E395E00E94AA238091900481118B
:105040000FC007E913E020E440E860E081E00E943F
:10505000901A84E395E00E9480238111EECFA4CFC3
:10506000F0929204E0929104F4CF84E395E00E94E0
:10507000AA233FE0232E312C43EA842E41E0942ED4
:105080000E94F821009739F08230910509F4D2C1CD
:10509000039709F4D6C180918C0490918D04A0915E
:1050A0008E04B0918F048DE790E10E94EC1B2BE001
:1050B0004FE76BE080E00E94261A4FE851E06AE07B
:1050C00080E00E94791E20E04FE760E080E00E94CF
:1050D000261A2BE04AE160E08AE10E94261A2BE0C2
:1050E0004CE260E08CE20E94261A2BE04CE260E089
:1050F0008CE20E94261A61E083E00E947F140E94E5
:10510000882226E636E646E650E40E94212F00EA91
:1051100012E087FD24C00E94882223E333E343E7A3
:1051200050E40E94212F04E912E087FD18C00E947C
:1051300088222AE939E949E750E40E94212F08E84A
:1051400012E087FD0CC00E9488222AE939E949E76C
:1051500050E40E944A3087FD08C00CE712E026E0C8
:105160004CE063E08DE10E94901A60E083E00E94D1
:105170007F1482E19EE10E94EC1B80910401882350
:1051800009F46DC143E951E06AE08BE40E94791EA5
:1051900080918704882309F459C160918C0470912F
:1051A0008D0480918E0490918F042091830430911E
:1051B000840440918504509186040E94B42E8E018F
:1051C0000E5D1F4F22E042E00E94122C21E137ECDD
:1051D0004AEB5BE360916A0470916B0480916C040C
:1051E00090916D040E944F308E010F5F1F4F22E09F
:1051F00042E00E94122C25E341E265E380E00E9438
:10520000261A2FE341E265E381E20E94261A80918B
:10521000680490916904F101E81BF90BCF019F9399
:10522000EF939F928F92BF92AF920E940531A5019A
:105230006AE085E30E94791E0F900F900F900F9007
:105240000F900F9080918704882309F40FC148EADA
:1052500051E067E38FE40E94791E02EB12E02CE03C
:105260004DE061E38FE30E94901A60918304709196
:10527000840480918504909186048E01045D1F4F03
:1052800022E042E00E94122CA8016FE38FE40E940A
:10529000791E46EB51E06FE387E60E94791E80910C
:1052A0008A0490918B048130910509F4F4C008F4CC
:1052B000E9C0029709F4F4C08AEC97E00E94EC1B65
:1052C000AE014E5D5F4F69E281E00E94791E0CE9FC
:1052D00011E029E14CE363E181E40E94901A0AE8BD
:1052E00011E029E04FE067E380E00E94901A6091AE
:1052F0008C0470918D0480918E0490918F0420E035
:1053000030E040E250E40E944A3018160CF08BC0A6
:1053100080918A0490918B04892B09F084C060915C
:105320006E0470916F046F5F7F4F70936F04609392
:105330006E04072E000C880B990B0E949A2F2B01EC
:105340003C0120E030E040E252E40E94212F88231B
:1053500091F120E030E040E452E4C301B2010E9448
:10536000212F882341F120E030E040E652E4C301E0
:10537000B2010E94212F8823F1F020E030E040EDBF
:1053800052E4C301B2010E94212F8823A1F020E042
:1053900030E040EE52E4C301B2010E94212F882385
:1053A00051F020E030E040EF52E4C301B2010E942E
:1053B000212F811106C06CE370E080E090E00E9434
:1053C000DE1420E030E040E852E4C301B2010E9464
:1053D000212F8823A1F020E030E040EA52E4C3010D
:1053E000B2010E94212F882351F020E030E040ECF0
:1053F00052E4C301B2010E94212F811106C068E767
:1054000070E080E090E00E94DE1420E030E040E5B3
:1054100053E4C301B2010E944A30181624F41092DA
:105420006F0410926E0484E395E00E948023811142
:1054300027CEBACD8091040131E083278093040107
:105440002ACED0929204C092910425CE60918C0411
:1054500070918D0480918E0490918F04B0CE4BE9B1
:1054600051E06AE08BE40E94791EC5CE41EB51E029
:1054700066E380E50E94791EAE014F5F5F4F6FE3E8
:1054800080E505CF00E712E026E04DE068E382E129
:105490000E94901A11CF0AE612E026E047E0F6CF0C
:1054A00004E612E0FACF84E395E00E94AA233324B5
:1054B00033948CEB91E00E945D2180908804909061
:1054C000890481EC9AE10E94EC1B45EC51E06AE111
:1054D0008CE10E94791E40ED51E068E28CE10E946F
:1054E000791E02EB12E02CE04DE060E380E00E94C8
:1054F000901A46ED51E06AE38EE00E94791E809199
:105500008704882341F00CEA12E026E048E063E3D8
:1055100085E20E94901AF1E08F16910411F122E0C9
:105520008216910429F14AED51E06AE18928E1F0FF
:105530000E94F821009739F183309105C9F1843038
:10554000910541F10197F9F48091880490918904C3
:1055500018161906A4F4019790938904809388047F
:1055600012C04AED51E068E281E10E94791EE0CF6D
:1055700020E140E36FE280E00E94011BD9CFD0928E
:105580008904C092880484E395E00E9480238111FD
:1055900090CF0ACD80918804909189048230910542
:1055A00014F40196D9CF1092890410928804EBCF9D
:1055B00020918804309189042115310529F49093B4
:1055C000920480939104DFCF2130310519F484E0F7
:1055D00090E0F5CF22303105B1F680918704832524
:1055E0008093870480918C0490918D04A0918E0407
:1055F000B0918F048093830490938404A0938504D6
:10560000B0938604F0929204E0929104BCCF84E3BC
:1056100095E00E94AA2380917B04811109C090E04B
:1056200080E00E94672E80937A0481E080937B045F
:1056300094E6392E21E2222E85EC91E00E945D2134
:105640000E94F8210097A1F060917A0483309105BF
:1056500009F482C08430910509F477C0019741F4C0
:10566000643620F46F5F60937A0402C010927A046B
:1056700090907A0482E19EE10E94EC1B2BE044E6CC
:1056800069E289E00E94011B29E0290D04E349E257
:1056900069E084E395E00E941019882361F019E223
:1056A00000E0292D412F69E084E395E00E94A119D3
:1056B0001F5F1433A9F74EED51E06DE388E00E94BF
:1056C000791E4CED51E06DE381E60E94791E87E082
:1056D000882E890C0AEC12E025E045E064E2882D72
:1056E0000E94901A8092B1052092B205292D30E0D7
:1056F00050E040E019A24E0191E2890E911CCA01CE
:10570000B9012AE030E040E050E00E94BC30605D2A
:10571000F40162934F01211531054105510579F7D7
:10572000309761F001900020E9F73197AF014819F7
:105730005909B40180E395E00E94812184E395E05A
:105740000E948023811178CF2FCC662311F0615005
:105750008ACF30927A048CCF90E080E00E946F2E46
:10576000F0929204E092910483CFD0927104C0929F
:105770007004809070049090710407E413E024E1B9
:105780004AE16BE18CE00E94901A0BE013E024E107
:1057900045E16BE186E30E94901A0FEC12E024E1F0
:1057A00047E16BE18CE50E94901AF1E08F169104BD
:1057B00079F122E08216910481F1892831F429E1FE
:1057C00041E269E189E00E94011B84E395E00E94C7
:1057D00080238111FCCBE8CB623071051CF46F5F34
:1057E0007F4F22CC1092710410927004C2CF8AE0D5
:1057F00090E00E946F2E80917004909171049093BC
:105800008B0480938A04F0929204E0929104B1CFC9
:1058100029E141E269E18FE2D6CF29E141E269E184
:1058200089E5D1CFEF920F931F93CF93DF93E801D8
:1058300034E047FD34E1042E000C550B57FF03C044
:10584000519541955109E32E022F242FAE010E945C
:10585000302CCE01DF91CF911F910F91EF900895E1
:10586000A9E0B0E0E6E3FCE20C94832E6A01F22E9C
:10587000B02E102FFBE3AF2EA01608F41BE31F5F22
:10588000012F27E0AE014F5F5F4F0E948F2DBC01BB
:105890008981982F9970913009F43FC09BE2E1FC17
:1058A00004C09E2D9170E0FC3AC05E2D5071E82F2F
:1058B000E87083FF46C084E0911101C083E0EF2DC2
:1058C000E81B8F1508F0E0E0D6018E2F20E255236B
:1058D00051F1992329F0D6019C93C60101966C01E0
:1058E00096012D5F3F4FE2FE24C08EE4D6018C93DB
:1058F00091E411969C93119712968C93D9018E2F57
:1059000090E281111BC0E20FF32FF11D10828EEF88
:105910009FEF2996ECE00C949F2E9DE2C6CF90E27B
:10592000C4CF2D9381508111FCCFCE0ED11CE0E06D
:10593000D0CF8EE6D6018C9391E6DBCF9D9381503C
:10594000E0CF482F447082FF3DC084E0911101C038
:1059500083E08F1510F4EF2DE81BD6018E2F20E287
:10596000552309F1992329F0D6019C93C60101968C
:105970006C0196012D5F3F4FE2FE1BC089E4D6010A
:105980008C938EE411968C93119786E412968C93E7
:10599000D9018E2F90E2882309F4B5CF9D938150D1
:1059A000FACF2D9381508111FCCFCE0ED11CE0E0B7
:1059B000D9CF89E6D6018C938EE611968C931197F8
:1059C00086E6E4CF9B0177FF02C030E020E0A1E053
:1059D000B0E0911102C0B0E0A0E0F9013196AE0F45
:1059E000BF1F8B2C912CBB2009F461C05401EFEF39
:1059F000AE1ABE0AAA0DBB1DFA161B0619F014F04A
:105A00004F2D4A1B511188C0E3FC59C07601A42FC9
:105A1000B0E2A1114FC0C40ED11C992309F45BC0A0
:105A200040E0D6011196F60190836D01552309F4EB
:105A300048C0012F060F9A81582F507184FF03C070
:105A4000913309F4015010160CF047C0093008F0EA
:105A500008E0EEE2FE2E5B01A01AB10885019194E8
:105A6000819491082F3F320729F4D601FC92F60168
:105A700031966F016217730794F1021713077CF5D3
:105A8000DB01A21BB30BAA24A394B12CAC0EBD1E48
:105A9000AA0DBB1D11968C9121503109D60111968A
:105AA00028153905F4F0F60180836D01DBCFB12CA8
:105AB000A12CA0CFF701B1937F01A150AACF9111E2
:105AC000B0CFD601942F50E302C05D939150911155
:105AD000FCCFC40ED11C40E0ACCF01E0BACF80E3D4
